{
  "_format": "hh-sol-artifact-1",
  "contractName": "lab3",
  "sourceName": "contracts/lab3.sol",
  "abi": [
    {
      "inputs": [],
      "stateMutability": "nonpayable",
      "type": "constructor"
    },
    {
      "anonymous": false,
      "inputs": [
        {
          "indexed": false,
          "internalType": "address",
          "name": "from",
          "type": "address"
        },
        {
          "indexed": false,
          "internalType": "address",
          "name": "to",
          "type": "address"
        },
        {
          "indexed": false,
          "internalType": "address",
          "name": "token",
          "type": "address"
        },
        {
          "indexed": false,
          "internalType": "uint256",
          "name": "amount",
          "type": "uint256"
        }
      ],
      "name": "transfer",
      "type": "event"
    },
    {
      "inputs": [
        {
          "internalType": "address",
          "name": "token",
          "type": "address"
        },
        {
          "internalType": "uint256",
          "name": "amount",
          "type": "uint256"
        }
      ],
      "name": "deposit",
      "outputs": [],
      "stateMutability": "nonpayable",
      "type": "function"
    },
    {
      "inputs": [
        {
          "internalType": "address",
          "name": "token",
          "type": "address"
        },
        {
          "internalType": "uint256",
          "name": "amount",
          "type": "uint256"
        }
      ],
      "name": "withdraw",
      "outputs": [],
      "stateMutability": "nonpayable",
      "type": "function"
    }
  ],
  "bytecode": "0x608060405234801561001057600080fd5b50610828806100206000396000f3fe608060405234801561001057600080fd5b50600436106100365760003560e01c806347e7ef241461003b578063f3fef3a314610057575b600080fd5b610055600480360381019061005091906104e4565b610073565b005b610071600480360381019061006c91906104e4565b6101ff565b005b8173ffffffffffffffffffffffffffffffffffffffff166323b872dd3330846040518463ffffffff1660e01b81526004016100b093929190610542565b6020604051808303816000875af19250505080156100ec57506040513d601f19601f820116820180604052508101906100e991906105b1565b60015b61012b576040517f08c379a00000000000000000000000000000000000000000000000000000000081526004016101229061063b565b60405180910390fd5b50806000803373ffffffffffffffffffffffffffffffffffffffff1673ffffffffffffffffffffffffffffffffffffffff16815260200190815260200160002060008473ffffffffffffffffffffffffffffffffffffffff1673ffffffffffffffffffffffffffffffffffffffff16815260200190815260200160002060008282546101b7919061068a565b925050819055507ff18d03cc52b48ed573f82470918a45b057576d5e079d4aaa8acb1f656dc20f3c333084846040516101f394939291906106be565b60405180910390a15050565b8181806000803373ffffffffffffffffffffffffffffffffffffffff1673ffffffffffffffffffffffffffffffffffffffff16815260200190815260200160002060008473ffffffffffffffffffffffffffffffffffffffff1673ffffffffffffffffffffffffffffffffffffffff1681526020019081526020016000205410156102bf576040517f08c379a00000000000000000000000000000000000000000000000000000000081526004016102b690610775565b60405180910390fd5b8373ffffffffffffffffffffffffffffffffffffffff1663a9059cbb33856040518363ffffffff1660e01b81526004016102fa929190610795565b6020604051808303816000875af192505050801561033657506040513d601f19601f8201168201806040525081019061033391906105b1565b60015b610375576040517f08c379a000000000000000000000000000000000000000000000000000000000815260040161036c9061063b565b60405180910390fd5b50826000803373ffffffffffffffffffffffffffffffffffffffff1673ffffffffffffffffffffffffffffffffffffffff16815260200190815260200160002060008673ffffffffffffffffffffffffffffffffffffffff1673ffffffffffffffffffffffffffffffffffffffff168152602001908152602001600020600082825461040191906107be565b925050819055507ff18d03cc52b48ed573f82470918a45b057576d5e079d4aaa8acb1f656dc20f3c3033868660405161043d94939291906106be565b60405180910390a150505050565b600080fd5b600073ffffffffffffffffffffffffffffffffffffffff82169050919050565b600061047b82610450565b9050919050565b61048b81610470565b811461049657600080fd5b50565b6000813590506104a881610482565b92915050565b6000819050919050565b6104c1816104ae565b81146104cc57600080fd5b50565b6000813590506104de816104b8565b92915050565b600080604083850312156104fb576104fa61044b565b5b600061050985828601610499565b925050602061051a858286016104cf565b9150509250929050565b61052d81610470565b82525050565b61053c816104ae565b82525050565b60006060820190506105576000830186610524565b6105646020830185610524565b6105716040830184610533565b949350505050565b60008115159050919050565b61058e81610579565b811461059957600080fd5b50565b6000815190506105ab81610585565b92915050565b6000602082840312156105c7576105c661044b565b5b60006105d58482850161059c565b91505092915050565b600082825260208201905092915050565b7f7472616e73666572206661696c65640000000000000000000000000000000000600082015250565b6000610625600f836105de565b9150610630826105ef565b602082019050919050565b6000602082019050818103600083015261065481610618565b9050919050565b7f4e487b7100000000000000000000000000000000000000000000000000000000600052601160045260246000fd5b6000610695826104ae565b91506106a0836104ae565b92508282019050808211156106b8576106b761065b565b5b92915050565b60006080820190506106d36000830187610524565b6106e06020830186610524565b6106ed6040830185610524565b6106fa6060830184610533565b95945050505050565b7f74686520616d6f756e74206f6620746f6b656e20696e20746865206163636f7560008201527f6e74206973206e6f7420656e6f75676821000000000000000000000000000000602082015250565b600061075f6031836105de565b915061076a82610703565b604082019050919050565b6000602082019050818103600083015261078e81610752565b9050919050565b60006040820190506107aa6000830185610524565b6107b76020830184610533565b9392505050565b60006107c9826104ae565b91506107d4836104ae565b92508282039050818111156107ec576107eb61065b565b5b9291505056fea26469706673582212205c49c6ccf13fb0daf07379b349d5a43c180f61fbd49cdbe3d442eda819408ce664736f6c63430008120033",
  "linkReferences": {},
  "deployedLinkReferences": {}
}